S01000005072654C61625F362E7372656349
S11300000C945A000C9477000C9477000C947700AD
S11300100C9477000C9477000C9477000C94770080
S11300200C9477000C9477000C9477000C94770070
S11300300C9477000C9477000C9477000C94770060
S11300400C9477000C9477000C94CF000C947700F8
S11300500C9477000C9477000C9477000C94770040
S11300600C9477000C9477000C9477000C94770030
S11300700C9477000C9477000C9477000C94770020
S11300800C9477000C9477000C9477000C94770010
S11300900C9477000C9477000C9477000C94770000
S11300A00C9477000C9477000C9477000C947700F0
S11300B00C94770011241FBECFEFD8E0DEBFCDBF74
S11300C011E0A0E0B1E0E8E5F2E002C005900D9295
S11300D0AC35B107D9F721E0ACE5B1E001C01D9220
S11300E0AE35B207E1F70E94C2000C942A010C94C9
S11300F000008AB18E7F8AB98AB182608AB9E0EC45
S1130100F0E01082808182608083E1ECF0E0108274
S1130110808188698083E2ECF0E0108280818660CF
S113012080838FEC90E09093C5008093C400089581
S1130130AC0120E007C09091C00095FFFCCF309344
S1130140C6002F5FFA01E20FF11D30813111F3CFA8
S113015008958091000190E0880F991F880F991FDE
S11301608BB980910001829586958695837085B9B7
S1130170089581E091E00E94980085E191E00E9459
S1130180980008950E94790078948FEF8AB984B911
S11301900E94B9001BB815B80E94A900FDCF1F9298
S11301A00F920FB60F9211242F933F934F935F93A7
S11301B06F937F938F939F93AF93BF93EF93FF932B
S11301C08091C60080935D0180915C01882339F0A1
S11301D085B1806285B980915D0180930001809131
S11301E0C00085FFFCCF80915D018093C6008091A3
S11301F05C01882349F08F5F80935C01823020F09A
S113020010925C010E94B90080915D01813389F4F0
S113021080915C0181110DC086E291E00E949800FA
S11302208EE291E00E94980081E080935C011BB80B
S113023015B8FF91EF91BF91AF919F918F917F91ED
S11302406F915F914F913F912F910F900FBE0F903F
S10B02501F901895F894FFCFEC
S1130258300A456C69676520756E61206F70636943
S1130268F36E3A0A00312E20456E76696172204198
S1130278736369690A000A41736363690A000A457A
S11302887363726962652074752063F36469676FC8
S113029820417363696920426F6D62617264696E9B
S10F02A8692047757373696E693A0A0097
S9030000FC
